{
  "_format": "hh-sol-artifact-1",
  "contractName": "StakingPlatform",
  "sourceName": "contracts/StakingPlatform.sol",
  "abi": [
    {
      "inputs": [
        {
          "internalType": "address",
          "name": "_stakingToken",
          "type": "address"
        },
        {
          "internalType": "address",
          "name": "_rewardToken",
          "type": "address"
        }
      ],
      "stateMutability": "nonpayable",
      "type": "constructor"
    },
    {
      "inputs": [],
      "name": "EnforcedPause",
      "type": "error"
    },
    {
      "inputs": [],
      "name": "ExpectedPause",
      "type": "error"
    },
    {
      "inputs": [
        {
          "internalType": "address",
          "name": "owner",
          "type": "address"
        }
      ],
      "name": "OwnableInvalidOwner",
      "type": "error"
    },
    {
      "inputs": [
        {
          "internalType": "address",
          "name": "account",
          "type": "address"
        }
      ],
      "name": "OwnableUnauthorizedAccount",
      "type": "error"
    },
    {
      "inputs": [],
      "name": "ReentrancyGuardReentrantCall",
      "type": "error"
    },
    {
      "inputs": [
        {
          "internalType": "address",
          "name": "token",
          "type": "address"
        }
      ],
      "name": "SafeERC20FailedOperation",
      "type": "error"
    },
    {
      "anonymous": false,
      "inputs": [
        {
          "indexed": true,
          "internalType": "address",
          "name": "user",
          "type": "address"
        },
        {
          "indexed": false,
          "internalType": "uint256",
          "name": "amount",
          "type": "uint256"
        },
        {
          "indexed": false,
          "internalType": "uint256",
          "name": "stakeId",
          "type": "uint256"
        }
      ],
      "name": "EmergencyWithdraw",
      "type": "event"
    },
    {
      "anonymous": false,
      "inputs": [
        {
          "indexed": true,
          "internalType": "address",
          "name": "previousOwner",
          "type": "address"
        },
        {
          "indexed": true,
          "internalType": "address",
          "name": "newOwner",
          "type": "address"
        }
      ],
      "name": "OwnershipTransferred",
      "type": "event"
    },
    {
      "anonymous": false,
      "inputs": [
        {
          "indexed": false,
          "internalType": "address",
          "name": "account",
          "type": "address"
        }
      ],
      "name": "Paused",
      "type": "event"
    },
    {
      "anonymous": false,
      "inputs": [
        {
          "indexed": true,
          "internalType": "address",
          "name": "user",
          "type": "address"
        },
        {
          "indexed": false,
          "internalType": "uint256",
          "name": "reward",
          "type": "uint256"
        },
        {
          "indexed": false,
          "internalType": "uint256",
          "name": "stakeId",
          "type": "uint256"
        }
      ],
      "name": "RewardClaimed",
      "type": "event"
    },
    {
      "anonymous": false,
      "inputs": [
        {
          "indexed": false,
          "internalType": "uint256",
          "name": "amount",
          "type": "uint256"
        }
      ],
      "name": "RewardPoolFunded",
      "type": "event"
    },
    {
      "anonymous": false,
      "inputs": [
        {
          "indexed": true,
          "internalType": "address",
          "name": "user",
          "type": "address"
        },
        {
          "indexed": false,
          "internalType": "uint256",
          "name": "amount",
          "type": "uint256"
        },
        {
          "indexed": false,
          "internalType": "uint256",
          "name": "tierIndex",
          "type": "uint256"
        },
        {
          "indexed": false,
          "internalType": "uint256",
          "name": "stakeId",
          "type": "uint256"
        }
      ],
      "name": "Staked",
      "type": "event"
    },
    {
      "anonymous": false,
      "inputs": [
        {
          "indexed": false,
          "internalType": "address",
          "name": "account",
          "type": "address"
        }
      ],
      "name": "Unpaused",
      "type": "event"
    },
    {
      "anonymous": false,
      "inputs": [
        {
          "indexed": true,
          "internalType": "address",
          "name": "user",
          "type": "address"
        },
        {
          "indexed": false,
          "internalType": "uint256",
          "name": "amount",
          "type": "uint256"
        },
        {
          "indexed": false,
          "internalType": "uint256",
          "name": "reward",
          "type": "uint256"
        },
        {
          "indexed": false,
          "internalType": "uint256",
          "name": "stakeId",
          "type": "uint256"
        }
      ],
      "name": "Unstaked",
      "type": "event"
    },
    {
      "inputs": [
        {
          "internalType": "uint256",
          "name": "_apy",
          "type": "uint256"
        },
        {
          "internalType": "uint256",
          "name": "_lockPeriod",
          "type": "uint256"
        }
      ],
      "name": "addTier",
      "outputs": [],
      "stateMutability": "nonpayable",
      "type": "function"
    },
    {
      "inputs": [
        {
          "internalType": "address",
          "name": "_user",
          "type": "address"
        },
        {
          "internalType": "uint256",
          "name": "_stakeId",
          "type": "uint256"
        }
      ],
      "name": "calculateReward",
      "outputs": [
        {
          "internalType": "uint256",
          "name": "",
          "type": "uint256"
        }
      ],
      "stateMutability": "view",
      "type": "function"
    },
    {
      "inputs": [
        {
          "internalType": "uint256",
          "name": "_stakeId",
          "type": "uint256"
        }
      ],
      "name": "claimRewards",
      "outputs": [],
      "stateMutability": "nonpayable",
      "type": "function"
    },
    {
      "inputs": [
        {
          "internalType": "uint256",
          "name": "_stakeId",
          "type": "uint256"
        }
      ],
      "name": "emergencyWithdraw",
      "outputs": [],
      "stateMutability": "nonpayable",
      "type": "function"
    },
    {
      "inputs": [
        {
          "internalType": "uint256",
          "name": "_amount",
          "type": "uint256"
        }
      ],
      "name": "fundRewardPool",
      "outputs": [],
      "stateMutability": "nonpayable",
      "type": "function"
    },
    {
      "inputs": [
        {
          "internalType": "address",
          "name": "_user",
          "type": "address"
        },
        {
          "internalType": "uint256",
          "name": "_stakeId",
          "type": "uint256"
        }
      ],
      "name": "getPendingRewards",
      "outputs": [
        {
          "internalType": "uint256",
          "name": "",
          "type": "uint256"
        }
      ],
      "stateMutability": "view",
      "type": "function"
    },
    {
      "inputs": [
        {
          "internalType": "address",
          "name": "_user",
          "type": "address"
        }
      ],
      "name": "getUserStakes",
      "outputs": [
        {
          "components": [
            {
              "internalType": "uint256",
              "name": "amount",
              "type": "uint256"
            },
            {
              "internalType": "uint256",
              "name": "startTime",
              "type": "uint256"
            },
            {
              "internalType": "uint256",
              "name": "lastClaimTime",
              "type": "uint256"
            },
            {
              "internalType": "uint256",
              "name": "tierIndex",
              "type": "uint256"
            },
            {
              "internalType": "bool",
              "name": "active",
              "type": "bool"
            }
          ],
          "internalType": "struct StakingPlatform.StakeInfo[]",
          "name": "",
          "type": "tuple[]"
        }
      ],
      "stateMutability": "view",
      "type": "function"
    },
    {
      "inputs": [],
      "name": "owner",
      "outputs": [
        {
          "internalType": "address",
          "name": "",
          "type": "address"
        }
      ],
      "stateMutability": "view",
      "type": "function"
    },
    {
      "inputs": [],
      "name": "pause",
      "outputs": [],
      "stateMutability": "nonpayable",
      "type": "function"
    },
    {
      "inputs": [],
      "name": "paused",
      "outputs": [
        {
          "internalType": "bool",
          "name": "",
          "type": "bool"
        }
      ],
      "stateMutability": "view",
      "type": "function"
    },
    {
      "inputs": [
        {
          "internalType": "address",
          "name": "_token",
          "type": "address"
        },
        {
          "internalType": "uint256",
          "name": "_amount",
          "type": "uint256"
        }
      ],
      "name": "recoverToken",
      "outputs": [],
      "stateMutability": "nonpayable",
      "type": "function"
    },
    {
      "inputs": [],
      "name": "renounceOwnership",
      "outputs": [],
      "stateMutability": "nonpayable",
      "type": "function"
    },
    {
      "inputs": [],
      "name": "rewardToken",
      "outputs": [
        {
          "internalType": "contract IERC20",
          "name": "",
          "type": "address"
        }
      ],
      "stateMutability": "view",
      "type": "function"
    },
    {
      "inputs": [
        {
          "internalType": "uint256",
          "name": "_amount",
          "type": "uint256"
        },
        {
          "internalType": "uint256",
          "name": "_tierIndex",
          "type": "uint256"
        }
      ],
      "name": "stake",
      "outputs": [],
      "stateMutability": "nonpayable",
      "type": "function"
    },
    {
      "inputs": [
        {
          "internalType": "address",
          "name": "",
          "type": "address"
        }
      ],
      "name": "stakeCounts",
      "outputs": [
        {
          "internalType": "uint256",
          "name": "",
          "type": "uint256"
        }
      ],
      "stateMutability": "view",
      "type": "function"
    },
    {
      "inputs": [
        {
          "internalType": "address",
          "name": "",
          "type": "address"
        },
        {
          "internalType": "uint256",
          "name": "",
          "type": "uint256"
        }
      ],
      "name": "stakes",
      "outputs": [
        {
          "internalType": "uint256",
          "name": "amount",
          "type": "uint256"
        },
        {
          "internalType": "uint256",
          "name": "startTime",
          "type": "uint256"
        },
        {
          "internalType": "uint256",
          "name": "lastClaimTime",
          "type": "uint256"
        },
        {
          "internalType": "uint256",
          "name": "tierIndex",
          "type": "uint256"
        },
        {
          "internalType": "bool",
          "name": "active",
          "type": "bool"
        }
      ],
      "stateMutability": "view",
      "type": "function"
    },
    {
      "inputs": [],
      "name": "stakingToken",
      "outputs": [
        {
          "internalType": "contract IERC20",
          "name": "",
          "type": "address"
        }
      ],
      "stateMutability": "view",
      "type": "function"
    },
    {
      "inputs": [],
      "name": "tierCount",
      "outputs": [
        {
          "internalType": "uint256",
          "name": "",
          "type": "uint256"
        }
      ],
      "stateMutability": "view",
      "type": "function"
    },
    {
      "inputs": [
        {
          "internalType": "uint256",
          "name": "",
          "type": "uint256"
        }
      ],
      "name": "tiers",
      "outputs": [
        {
          "internalType": "uint256",
          "name": "apy",
          "type": "uint256"
        },
        {
          "internalType": "uint256",
          "name": "lockPeriod",
          "type": "uint256"
        }
      ],
      "stateMutability": "view",
      "type": "function"
    },
    {
      "inputs": [],
      "name": "totalStaked",
      "outputs": [
        {
          "internalType": "uint256",
          "name": "",
          "type": "uint256"
        }
      ],
      "stateMutability": "view",
      "type": "function"
    },
    {
      "inputs": [
        {
          "internalType": "address",
          "name": "newOwner",
          "type": "address"
        }
      ],
      "name": "transferOwnership",
      "outputs": [],
      "stateMutability": "nonpayable",
      "type": "function"
    },
    {
      "inputs": [],
      "name": "unpause",
      "outputs": [],
      "stateMutability": "nonpayable",
      "type": "function"
    },
    {
      "inputs": [
        {
          "internalType": "uint256",
          "name": "_stakeId",
          "type": "uint256"
        }
      ],
      "name": "unstake",
      "outputs": [],
      "stateMutability": "nonpayable",
      "type": "function"
    },
    {
      "inputs": [
        {
          "internalType": "uint256",
          "name": "_tierIndex",
          "type": "uint256"
        },
        {
          "internalType": "uint256",
          "name": "_apy",
          "type": "uint256"
        },
        {
          "internalType": "uint256",
          "name": "_lockPeriod",
          "type": "uint256"
        }
      ],
      "name": "updateTier",
      "outputs": [],
      "stateMutability": "nonpayable",
      "type": "function"
    }
  ],
  "bytecode": "0x60806040523480156200001157600080fd5b5060405162002ace38038062002ace833981810160405281019062000037919062000472565b3360016200005a6200004e620001cc60201b60201c565b620001f760201b60201c565b60000181905550600073ffffffffffffffffffffffffffffffffffffffff168173ffffffffffffffffffffffffffffffffffffffff1603620000d65760006040517f1e4fbdf7000000000000000000000000000000000000000000000000000000008152600401620000cd9190620004ca565b60405180910390fd5b620000e7816200020160201b60201c565b5081600160006101000a81548173ffffffffffffffffffffffffffffffffffffffff021916908373ffffffffffffffffffffffffffffffffffffffff16021790555080600260006101000a81548173ffffffffffffffffffffffffffffffffffffffff021916908373ffffffffffffffffffffffffffffffffffffffff1602179055506200017f6101f46000620002c660201b60201c565b620001966103e862278d00620002c660201b60201c565b620001ad6107d06276a700620002c660201b60201c565b620001c4610fa062ed4e00620002c660201b60201c565b50506200056d565b60007f9b779b17422d0df92223018b32b4d1fa46e071723d6817e2486d003becc55f0060001b905090565b6000819050919050565b60008060019054906101000a900473ffffffffffffffffffffffffffffffffffffffff16905081600060016101000a81548173ffffffffffffffffffffffffffffffffffffffff021916908373ffffffffffffffffffffffffffffffffffffffff1602179055508173ffffffffffffffffffffffffffffffffffffffff168173ffffffffffffffffffffffffffffffffffffffff167f8be0079c531659141344cd1fd0a4f28419497f9722a3daafe3b4186f6b6457e060405160405180910390a35050565b620002d66200033560201b60201c565b6040518060400160405280838152602001828152506003600060045481526020019081526020016000206000820151816000015560208201518160010155905050600460008154809291906200032c9062000520565b91905055505050565b62000345620003d760201b60201c565b73ffffffffffffffffffffffffffffffffffffffff166200036b620003df60201b60201c565b73ffffffffffffffffffffffffffffffffffffffff1614620003d55762000397620003d760201b60201c565b6040517f118cdaa7000000000000000000000000000000000000000000000000000000008152600401620003cc9190620004ca565b60405180910390fd5b565b600033905090565b60008060019054906101000a900473ffffffffffffffffffffffffffffffffffffffff16905090565b600080fd5b600073ffffffffffffffffffffffffffffffffffffffff82169050919050565b60006200043a826200040d565b9050919050565b6200044c816200042d565b81146200045857600080fd5b50565b6000815190506200046c8162000441565b92915050565b600080604083850312156200048c576200048b62000408565b5b60006200049c858286016200045b565b9250506020620004af858286016200045b565b9150509250929050565b620004c4816200042d565b82525050565b6000602082019050620004e16000830184620004b9565b92915050565b7f4e487b7100000000000000000000000000000000000000000000000000000000600052601160045260246000fd5b6000819050919050565b60006200052d8262000516565b91507fffffffffffffffffffffffffffffffffffffffffffffffffffffffffffffffff8203620005625762000561620004e7565b5b600182019050919050565b612551806200057d6000396000f3fe608060405234801561001057600080fd5b50600436106101585760003560e01c80637b0472f0116100c3578063b29a81401161007c578063b29a81401461037e578063db7dfbb31461039a578063e25a2a99146103ca578063e4e7c6b4146103e6578063f2fde38b14610416578063f7c618c11461043257610158565b80637b0472f0146102ce578063817b1cd2146102ea578063842e2981146103085780638456cb59146103385780638da5cb5b1461034257806396b55f7d1461036057610158565b80634535075911610115578063453507591461021c5780635312ea8e14610238578063584b62a1146102545780635c975abb14610288578063715018a6146102a657806372f702f3146102b057610158565b8063039af9eb1461015d5780630962ef791461018e5780631852e8d9146101aa5780631d583e0d146101da5780632e17de78146101f65780633f4ba83a14610212575b600080fd5b61017760048036038101906101729190611b5c565b610450565b604051610185929190611b98565b60405180910390f35b6101a860048036038101906101a39190611b5c565b610474565b005b6101c460048036038101906101bf9190611c1f565b61070b565b6040516101d19190611c5f565b60405180910390f35b6101f460048036038101906101ef9190611b5c565b610850565b005b610210600480360381019061020b9190611b5c565b610924565b005b61021a610c9b565b005b61023660048036038101906102319190611c7a565b610cad565b005b610252600480360381019061024d9190611b5c565b610d12565b005b61026e60048036038101906102699190611c1f565b610eb2565b60405161027f959493929190611cd5565b60405180910390f35b610290610f02565b60405161029d9190611d28565b60405180910390f35b6102ae610f18565b005b6102b8610f2c565b6040516102c59190611da2565b60405180910390f35b6102e860048036038101906102e39190611c7a565b610f52565b005b6102f261120e565b6040516102ff9190611c5f565b60405180910390f35b610322600480360381019061031d9190611dbd565b611214565b60405161032f9190611f1f565b60405180910390f35b610340611391565b005b61034a6113a3565b6040516103579190611f50565b60405180910390f35b6103686113cc565b6040516103759190611c5f565b60405180910390f35b61039860048036038101906103939190611c1f565b6113d2565b005b6103b460048036038101906103af9190611dbd565b611499565b6040516103c19190611c5f565b60405180910390f35b6103e460048036038101906103df9190611f6b565b6114b1565b005b61040060048036038101906103fb9190611c1f565b611538565b60405161040d9190611c5f565b60405180910390f35b610430600480360381019061042b9190611dbd565b61154c565b005b61043a6115d2565b6040516104479190611da2565b60405180910390f35b60036020528060005260406000206000915090508060000154908060010154905082565b61047c6115f8565b61048461161b565b6000600560003373ffffffffffffffffffffffffffffffffffffffff1673ffffffffffffffffffffffffffffffffffffffff168152602001908152602001600020600083815260200190815260200160002090508060040160009054906101000a900460ff16610529576040517f08c379a00000000000000000000000000000000000000000000000000000000081526004016105209061201b565b60405180910390fd5b6000610535338461070b565b90506000811161057a576040517f08c379a000000000000000000000000000000000000000000000000000000000815260040161057190612087565b60405180910390fd5b80600260009054906101000a900473ffffffffffffffffffffffffffffffffffffffff1673ffffffffffffffffffffffffffffffffffffffff166370a08231306040518263ffffffff1660e01b81526004016105d69190611f50565b602060405180830381865afa1580156105f3573d6000803e3d6000fd5b505050506040513d601f19601f8201168201806040525081019061061791906120bc565b1015610658576040517f08c379a000000000000000000000000000000000000000000000000000000000815260040161064f90612135565b60405180910390fd5b4282600201819055506106ae3382600260009054906101000a900473ffffffffffffffffffffffffffffffffffffffff1673ffffffffffffffffffffffffffffffffffffffff1661165c9092919063ffffffff16565b3373ffffffffffffffffffffffffffffffffffffffff167ff01da32686223933d8a18a391060918c7f11a3648639edd87ae013e2e273174382856040516106f6929190611b98565b60405180910390a250506107086116af565b50565b600080600560008573ffffffffffffffffffffffffffffffffffffffff1673ffffffffffffffffffffffffffffffffffffffff16815260200190815260200160002060008481526020019081526020016000206040518060a0016040529081600082015481526020016001820154815260200160028201548152602001600382015481526020016004820160009054906101000a900460ff161515151581525050905080608001516107c157600091505061084a565b60006003600083606001518152602001908152602001600020604051806040016040529081600082015481526020016001820154815250509050600082604001514261080d9190612184565b9050600064496cebb800828460000151866000015161082c91906121b8565b61083691906121b8565b6108409190612229565b9050809450505050505b92915050565b6108586116ca565b6000811161089b576040517f08c379a0000000000000000000000000000000000000000000000000000000008152600401610892906122a6565b60405180910390fd5b6108ea333083600260009054906101000a900473ffffffffffffffffffffffffffffffffffffffff1673ffffffffffffffffffffffffffffffffffffffff16611751909392919063ffffffff16565b7fb1d234dd8081b3e00565c8b359ca6fa117fc7b024f75d85b6830b190bef5c76b816040516109199190611c5f565b60405180910390a150565b61092c6115f8565b6000600560003373ffffffffffffffffffffffffffffffffffffffff1673ffffffffffffffffffffffffffffffffffffffff168152602001908152602001600020600083815260200190815260200160002090508060040160009054906101000a900460ff166109d1576040517f08c379a00000000000000000000000000000000000000000000000000000000081526004016109c89061201b565b60405180910390fd5b6000600360008360030154815260200190815260200160002060405180604001604052908160008201548152602001600182015481525050905080602001518260010154610a1f91906122c6565b421015610a61576040517f08c379a0000000000000000000000000000000000000000000000000000000008152600401610a5890612346565b60405180910390fd5b6000826000015490506000610a76338661070b565b905060008460040160006101000a81548160ff021916908315150217905550600084600001819055508160076000828254610ab19190612184565b92505081905550610b053383600160009054906101000a900473ffffffffffffffffffffffffffffffffffffffff1673ffffffffffffffffffffffffffffffffffffffff1661165c9092919063ffffffff16565b6000811115610c3a5780600260009054906101000a900473ffffffffffffffffffffffffffffffffffffffff1673ffffffffffffffffffffffffffffffffffffffff166370a08231306040518263ffffffff1660e01b8152600401610b6a9190611f50565b602060405180830381865afa158015610b87573d6000803e3d6000fd5b505050506040513d601f19601f82011682018060405250810190610bab91906120bc565b1015610bec576040517f08c379a0000000000000000000000000000000000000000000000000000000008152600401610be390612135565b60405180910390fd5b610c393382600260009054906101000a900473ffffffffffffffffffffffffffffffffffffffff1673ffffffffffffffffffffffffffffffffffffffff1661165c9092919063ffffffff16565b5b3373ffffffffffffffffffffffffffffffffffffffff167f204fccf0d92ed8d48f204adb39b2e81e92bad0dedb93f5716ca9478cfb57de00838388604051610c8493929190612366565b60405180910390a250505050610c986116af565b50565b610ca36116ca565b610cab6117a6565b565b610cb56116ca565b604051806040016040528083815260200182815250600360006004548152602001908152602001600020600082015181600001556020820151816001015590505060046000815480929190610d099061239d565b91905055505050565b610d1a6115f8565b6000600560003373ffffffffffffffffffffffffffffffffffffffff1673ffffffffffffffffffffffffffffffffffffffff168152602001908152602001600020600083815260200190815260200160002090508060040160009054906101000a900460ff16610dbf576040517f08c379a0000000000000000000000000000000000000000000000000000000008152600401610db69061201b565b60405180910390fd5b60008160000154905060008260040160006101000a81548160ff021916908315150217905550600082600001819055508060076000828254610e019190612184565b92505081905550610e553382600160009054906101000a900473ffffffffffffffffffffffffffffffffffffffff1673ffffffffffffffffffffffffffffffffffffffff1661165c9092919063ffffffff16565b3373ffffffffffffffffffffffffffffffffffffffff167fbb757047c2b5f3974fe26b7c10f732e7bce710b0952a71082702781e62ae05958285604051610e9d929190611b98565b60405180910390a25050610eaf6116af565b50565b6005602052816000526040600020602052806000526040600020600091509150508060000154908060010154908060020154908060030154908060040160009054906101000a900460ff16905085565b60008060009054906101000a900460ff16905090565b610f206116ca565b610f2a6000611808565b565b600160009054906101000a900473ffffffffffffffffffffffffffffffffffffffff1681565b610f5a6115f8565b610f6261161b565b60008211610fa5576040517f08c379a0000000000000000000000000000000000000000000000000000000008152600401610f9c906122a6565b60405180910390fd5b6004548110610fe9576040517f08c379a0000000000000000000000000000000000000000000000000000000008152600401610fe090612431565b60405180910390fd5b611038333084600160009054906101000a900473ffffffffffffffffffffffffffffffffffffffff1673ffffffffffffffffffffffffffffffffffffffff16611751909392919063ffffffff16565b6000600660003373ffffffffffffffffffffffffffffffffffffffff1673ffffffffffffffffffffffffffffffffffffffff1681526020019081526020016000205490506040518060a0016040528084815260200142815260200142815260200183815260200160011515815250600560003373ffffffffffffffffffffffffffffffffffffffff1673ffffffffffffffffffffffffffffffffffffffff16815260200190815260200160002060008381526020019081526020016000206000820151816000015560208201518160010155604082015181600201556060820151816003015560808201518160040160006101000a81548160ff021916908315150217905550905050600660003373ffffffffffffffffffffffffffffffffffffffff1673ffffffffffffffffffffffffffffffffffffffff16815260200190815260200160002060008154809291906111919061239d565b919050555082600760008282546111a891906122c6565b925050819055503373ffffffffffffffffffffffffffffffffffffffff167fb4caaf29adda3eefee3ad552a8e85058589bf834c7466cae4ee58787f70589ed8484846040516111f993929190612366565b60405180910390a25061120a6116af565b5050565b60075481565b60606000600660008473ffffffffffffffffffffffffffffffffffffffff1673ffffffffffffffffffffffffffffffffffffffff16815260200190815260200160002054905060008167ffffffffffffffff81111561127657611275612451565b5b6040519080825280602002602001820160405280156112af57816020015b61129c611af0565b8152602001906001900390816112945790505b50905060005b8281101561138657600560008673ffffffffffffffffffffffffffffffffffffffff1673ffffffffffffffffffffffffffffffffffffffff16815260200190815260200160002060008281526020019081526020016000206040518060a0016040529081600082015481526020016001820154815260200160028201548152602001600382015481526020016004820160009054906101000a900460ff16151515158152505082828151811061136e5761136d612480565b5b602002602001018190525080806001019150506112b5565b508092505050919050565b6113996116ca565b6113a16118cd565b565b60008060019054906101000a900473ffffffffffffffffffffffffffffffffffffffff16905090565b60045481565b6113da6116ca565b600160009054906101000a900473ffffffffffffffffffffffffffffffffffffffff1673ffffffffffffffffffffffffffffffffffffffff168273ffffffffffffffffffffffffffffffffffffffff160361146a576040517f08c379a0000000000000000000000000000000000000000000000000000000008152600401611461906124fb565b60405180910390fd5b61149533828473ffffffffffffffffffffffffffffffffffffffff1661165c9092919063ffffffff16565b5050565b60066020528060005260406000206000915090505481565b6114b96116ca565b60045483106114fd576040517f08c379a00000000000000000000000000000000000000000000000000000000081526004016114f490612431565b60405180910390fd5b816003600085815260200190815260200160002060000181905550806003600085815260200190815260200160002060010181905550505050565b6000611544838361070b565b905092915050565b6115546116ca565b600073ffffffffffffffffffffffffffffffffffffffff168173ffffffffffffffffffffffffffffffffffffffff16036115c65760006040517f1e4fbdf70000000000000000000000000000000000000000000000000000000081526004016115bd9190611f50565b60405180910390fd5b6115cf81611808565b50565b600260009054906101000a900473ffffffffffffffffffffffffffffffffffffffff1681565b61160061192f565b600261161261160d611970565b61199b565b60000181905550565b611623610f02565b1561165a576040517fd93c066500000000000000000000000000000000000000000000000000000000815260040160405180910390fd5b565b61166983838360016119a5565b6116aa57826040517f5274afe70000000000000000000000000000000000000000000000000000000081526004016116a19190611f50565b60405180910390fd5b505050565b60016116c16116bc611970565b61199b565b60000181905550565b6116d2611a0f565b73ffffffffffffffffffffffffffffffffffffffff166116f06113a3565b73ffffffffffffffffffffffffffffffffffffffff161461174f57611713611a0f565b6040517f118cdaa70000000000000000000000000000000000000000000000000000000081526004016117469190611f50565b60405180910390fd5b565b61175f848484846001611a17565b6117a057836040517f5274afe70000000000000000000000000000000000000000000000000000000081526004016117979190611f50565b60405180910390fd5b50505050565b6117ae611a92565b60008060006101000a81548160ff0219169083151502179055507f5db9ee0a495bf2e6ff9c91a7834c1ba4fdd244a5e8aa4e537bd38aeae4b073aa6117f1611a0f565b6040516117fe9190611f50565b60405180910390a1565b60008060019054906101000a900473ffffffffffffffffffffffffffffffffffffffff16905081600060016101000a81548173ffffffffffffffffffffffffffffffffffffffff021916908373ffffffffffffffffffffffffffffffffffffffff1602179055508173ffffffffffffffffffffffffffffffffffffffff168173ffffffffffffffffffffffffffffffffffffffff167f8be0079c531659141344cd1fd0a4f28419497f9722a3daafe3b4186f6b6457e060405160405180910390a35050565b6118d561161b565b60016000806101000a81548160ff0219169083151502179055507f62e78cea01bee320cd4e420270b5ea74000d11b0c9f74754ebdbfc544b05a258611918611a0f565b6040516119259190611f50565b60405180910390a1565b611937611ad2565b1561196e576040517f3ee5aeb500000000000000000000000000000000000000000000000000000000815260040160405180910390fd5b565b60007f9b779b17422d0df92223018b32b4d1fa46e071723d6817e2486d003becc55f0060001b905090565b6000819050919050565b60008063a9059cbb60e01b90506040518160005260001960601c8616600452846024526020600060446000808b5af192506001600051148316611a015783831516156119f4573d6000823e3d81fd5b6000873b113d1516831692505b806040525050949350505050565b600033905090565b6000806323b872dd60e01b90506040518160005260001960601c871660045260001960601c8616602452846044526020600060646000808c5af192506001600051148316611a7e578383151615611a71573d6000823e3d81fd5b6000883b113d1516831692505b806040526000606052505095945050505050565b611a9a610f02565b611ad0576040517f8dfc202b00000000000000000000000000000000000000000000000000000000815260040160405180910390fd5b565b60006002611ae6611ae1611970565b61199b565b6000015414905090565b6040518060a00160405280600081526020016000815260200160008152602001600081526020016000151581525090565b600080fd5b6000819050919050565b611b3981611b26565b8114611b4457600080fd5b50565b600081359050611b5681611b30565b92915050565b600060208284031215611b7257611b71611b21565b5b6000611b8084828501611b47565b91505092915050565b611b9281611b26565b82525050565b6000604082019050611bad6000830185611b89565b611bba6020830184611b89565b9392505050565b600073ffffffffffffffffffffffffffffffffffffffff82169050919050565b6000611bec82611bc1565b9050919050565b611bfc81611be1565b8114611c0757600080fd5b50565b600081359050611c1981611bf3565b92915050565b60008060408385031215611c3657611c35611b21565b5b6000611c4485828601611c0a565b9250506020611c5585828601611b47565b9150509250929050565b6000602082019050611c746000830184611b89565b92915050565b60008060408385031215611c9157611c90611b21565b5b6000611c9f85828601611b47565b9250506020611cb085828601611b47565b9150509250929050565b60008115159050919050565b611ccf81611cba565b82525050565b600060a082019050611cea6000830188611b89565b611cf76020830187611b89565b611d046040830186611b89565b611d116060830185611b89565b611d1e6080830184611cc6565b9695505050505050565b6000602082019050611d3d6000830184611cc6565b92915050565b6000819050919050565b6000611d68611d63611d5e84611bc1565b611d43565b611bc1565b9050919050565b6000611d7a82611d4d565b9050919050565b6000611d8c82611d6f565b9050919050565b611d9c81611d81565b82525050565b6000602082019050611db76000830184611d93565b92915050565b600060208284031215611dd357611dd2611b21565b5b6000611de184828501611c0a565b91505092915050565b600081519050919050565b600082825260208201905092915050565b6000819050602082019050919050565b611e1f81611b26565b82525050565b611e2e81611cba565b82525050565b60a082016000820151611e4a6000850182611e16565b506020820151611e5d6020850182611e16565b506040820151611e706040850182611e16565b506060820151611e836060850182611e16565b506080820151611e966080850182611e25565b50505050565b6000611ea88383611e34565b60a08301905092915050565b6000602082019050919050565b6000611ecc82611dea565b611ed68185611df5565b9350611ee183611e06565b8060005b83811015611f12578151611ef98882611e9c565b9750611f0483611eb4565b925050600181019050611ee5565b5085935050505092915050565b60006020820190508181036000830152611f398184611ec1565b905092915050565b611f4a81611be1565b82525050565b6000602082019050611f656000830184611f41565b92915050565b600080600060608486031215611f8457611f83611b21565b5b6000611f9286828701611b47565b9350506020611fa386828701611b47565b9250506040611fb486828701611b47565b9150509250925092565b600082825260208201905092915050565b7f5374616b65206e6f742061637469766500000000000000000000000000000000600082015250565b6000612005601083611fbe565b915061201082611fcf565b602082019050919050565b6000602082019050818103600083015261203481611ff8565b9050919050565b7f4e6f207265776172647320746f20636c61696d00000000000000000000000000600082015250565b6000612071601383611fbe565b915061207c8261203b565b602082019050919050565b600060208201905081810360008301526120a081612064565b9050919050565b6000815190506120b681611b30565b92915050565b6000602082840312156120d2576120d1611b21565b5b60006120e0848285016120a7565b91505092915050565b7f496e73756666696369656e742072657761726420706f6f6c0000000000000000600082015250565b600061211f601883611fbe565b915061212a826120e9565b602082019050919050565b6000602082019050818103600083015261214e81612112565b9050919050565b7f4e487b7100000000000000000000000000000000000000000000000000000000600052601160045260246000fd5b600061218f82611b26565b915061219a83611b26565b92508282039050818111156121b2576121b1612155565b5b92915050565b60006121c382611b26565b91506121ce83611b26565b92508282026121dc81611b26565b915082820484148315176121f3576121f2612155565b5b5092915050565b7f4e487b7100000000000000000000000000000000000000000000000000000000600052601260045260246000fd5b600061223482611b26565b915061223f83611b26565b92508261224f5761224e6121fa565b5b828204905092915050565b7f416d6f756e74206d7573742062652067726561746572207468616e2030000000600082015250565b6000612290601d83611fbe565b915061229b8261225a565b602082019050919050565b600060208201905081810360008301526122bf81612283565b9050919050565b60006122d182611b26565b91506122dc83611b26565b92508282019050808211156122f4576122f3612155565b5b92915050565b7f4c6f636b20706572696f64206e6f7420656e6465640000000000000000000000600082015250565b6000612330601583611fbe565b915061233b826122fa565b602082019050919050565b6000602082019050818103600083015261235f81612323565b9050919050565b600060608201905061237b6000830186611b89565b6123886020830185611b89565b6123956040830184611b89565b949350505050565b60006123a882611b26565b91507fffffffffffffffffffffffffffffffffffffffffffffffffffffffffffffffff82036123da576123d9612155565b5b600182019050919050565b7f496e76616c696420746965720000000000000000000000000000000000000000600082015250565b600061241b600c83611fbe565b9150612426826123e5565b602082019050919050565b6000602082019050818103600083015261244a8161240e565b9050919050565b7f4e487b7100000000000000000000000000000000000000000000000000000000600052604160045260246000fd5b7f4e487b7100000000000000000000000000000000000000000000000000000000600052603260045260246000fd5b7f43616e6e6f74207769746864726177207374616b696e6720746f6b656e000000600082015250565b60006124e5601d83611fbe565b91506124f0826124af565b602082019050919050565b60006020820190508181036000830152612514816124d8565b905091905056fea264697066735822122053252765a878d71830f59627ee1885e5f1842c5f7835d72ac2ca6544a4f6a38664736f6c63430008180033",
  "linkReferences": {},
  "deployedLinkReferences": {}
}